:020000040800F2
:1000000000000320810200083B0200083D020008B6
:100010003F020008410200084302000800000000FF
:100020000000000000000000000000004502000881
:100030004702000800000000490200084B020008C7
:10004000D1020008D1020008D1020008D102000844
:10005000D1020008D1020008D1020008D102000834
:10006000D1020008D1020008D1020008D102000824
:10007000D1020008D1020008D1020008D102000814
:10008000D1020008D1020008D1020008D102000804
:10009000D1020008D1020008D1020008D1020008F4
:1000A000D1020008D1020008D1020008D1020008E4
:1000B000D1020008D1020008D1020008D1020008D4
:1000C000D1020008D1020008D1020008D1020008C4
:1000D000D1020008D1020008D1020008D1020008B4
:1000E000D1020008D1020008D1020008D1020008A4
:1000F000D1020008D1020008D1020008D102000894
:10010000D1020008D1020008D1020008D102000883
:10011000D1020008D1020008D1020008D102000873
:10012000D1020008D1020008D1020008D102000863
:10013000D1020008D1020008D1020008D102000853
:10014000D1020008D1020008D1020008D102000843
:10015000D1020008D1020008D1020008D102000833
:10016000D1020008D1020008D1020008D102000823
:10017000D1020008D1020008D102000800000000EE
:10018000D1020008D1020008D1020008D102000803
:10019000D1020008D1020008D1020008D1020008F3
:0C01A000D1020008D1020008D1020008C2
:1001AC000348044B834202D0034B03B118477047FA
:1001BC000400002004000020000000000548064B4D
:1001CC001B1AD90F01EBA301491002D0034B03B149
:1001DC0018477047040000200400002000000000B5
:1001EC0010B5064C237843B9FFF7DAFF044B13B173
:1001FC000448AFF300800123237010BD04000020DD
:10020C00000000001C03000808B5054B1BB1054994
:10021C000548AFF30080BDE80840FFF7CFBF00BF33
:10022C0000000000080000201C030008FEE7FEE7A9
:10023C00FEE7FEE7FEE7FEE770477047704708B53C
:10024C0000F002F808BD0000034A1168034B1B784C
:10025C000B441360704700BF2000002000000020FA
:10026C00034AD2F8883043F47003C2F888307047E0
:10027C0000ED00E0DFF834D0FFF7F2FF0C480D4939
:10028C000D4A002302E0D458C4500433C4188C42E5
:10029C00F9D30A4A0A4C002301E013600432A2424B
:1002AC00FBD300F011F8FFF7C1FF704700000320EB
:1002BC0000000020040000203C0300080400002083
:1002CC0024000020FEE7000070B50D4D0D4C641BA2
:1002DC00A4100026A64209D10B4D0C4C00F018F8C6
:1002EC00641BA4100026A64205D170BD55F8043B32
:1002FC0098470136EEE755F8043B98470136F2E78C
:10030C0034030008340300083403000838030008E1
:10031C00F8B500BFF8BC08BC9E467047F8B500BFE6
:08032C00F8BC08BC9E467047B6
:0403340015020008A6
:04033800ED010008CB
:04033C0001000000BC
:04000005080002816C
:00000001FF
