:020000040800F2
:10000000000003208D140008650300086703000842
:10001000690300086B0300086D030008000000007E
:100020000000000000000000000000006F03000856
:100030007103000800000000730300087503000846
:10004000DD140008DD140008DD140008DD140008CC
:10005000DD140008DD140008DD140008DD140008BC
:10006000DD140008DD140008DD140008DD140008AC
:10007000DD140008DD140008DD140008DD1400089C
:10008000DD140008DD140008DD140008DD1400088C
:10009000DD140008DD140008DD140008DD1400087C
:1000A000DD140008DD140008DD140008DD1400086C
:1000B0007D030008DD140008DD140008DD140008CD
:1000C000DD140008DD140008DD140008DD1400084C
:1000D000DD140008DD140008DD140008DD1400083C
:1000E000DD140008DD140008DD140008DD1400082C
:1000F000DD140008DD140008DD140008DD1400081C
:10010000DD140008DD140008DD140008DD1400080B
:10011000DD140008DD140008DD140008DD140008FB
:10012000DD140008DD140008DD140008DD140008EB
:10013000DD140008DD140008DD140008DD140008DB
:10014000DD140008DD140008DD140008DD140008CB
:10015000DD140008DD140008DD140008DD140008BB
:10016000DD140008DD140008DD140008DD140008AB
:10017000DD140008DD140008DD1400080000000094
:10018000DD140008DD140008DD140008DD1400088B
:10019000DD140008DD140008DD140008DD1400087B
:0C01A000DD140008DD140008DD14000868
:1001AC0053B94AB9002908BF00281CBF4FF0FF31D2
:1001BC004FF0FF3000F00CB8ADF1080C6DE904CE37
:1001CC0001F0B4F9DDF804E0DDE9022304B0704776
:1001DC00704700BF0348044B834202D0034B03B16A
:1001EC00184770470C0000200C0000200000000095
:1001FC000548064B1B1AD90F01EBA301491002D07D
:10020C00034B03B1184770470C0000200C00002072
:10021C000000000010B5064C237843B9FFF7DAFF55
:10022C00044B13B10448AFF300800123237010BDBD
:10023C000C00002000000000F417000808B5054B66
:10024C001BB105490548AFF30080BDE80840FFF736
:10025C00CFBF00BF0000000010000020F417000802
:10026C0072B6FEE700B595B03022002108A801F067
:10027C0030F900230393049305930693079301939A
:10028C001F4A116C41F080511164126C02F08052C3
:10029C000192019A02931B4A136823F4404343F4DE
:1002AC0080431360136803F440430293029B0123C1
:1002BC0008934FF48033099302220E924FF480037B
:1002CC000F9304231093482111911292139308A8B1
:1002DC0000F006FB80B90F23039302210491002345
:1002EC0005934FF480520692079303A800F062FD29
:1002FC0020B915B05DF804FBFFF7B2FFFFF7B0FFB4
:10030C00003802400070004008B500F0AFFFFFF766
:10031C00A9FF01F02FF80F4800F07EF800F0DCFF89
:10032C004FF47A7001F09EF80121084601F00AF8AA
:10033C000021022001F006F84FF47A7001F092F8D7
:10034C000021012000F0FEFF0121022000F0FAFF45
:10035C00E6E700BF2C000020FEE7FEE7FEE7FEE725
:10036C00FEE770477047704708B500F099FF08BD6D
:10037C0008B5024800F098F808BD00BF2C0000201A
:10038C0082B0002100910B4B5A6C42F480425A64AB
:10039C005A6C02F480420092009A01911A6C42F05D
:1003AC0080521A641B6C03F080530193019B02B0C2
:1003BC00704700BF0038024010B4036A046A24F08E
:1003CC0001040462846924F0F00C4CEA021223F05C
:1003DC000A030B43826103625DF8044B704710B44F
:1003EC00036A046A24F010040462846924F4704CD7
:1003FC004CEA023223F0A00343EA01138261036248
:10040C005DF8044B7047836823F070030B4343F093
:10041C00070383607047000090F83D30DBB2012B7E
:10042C0037D1022380F83D300268D36843F00103D2
:10043C00D3600368194A934220D0B3F1804F1DD08A
:10044C00A2F57C42934219D002F58062934215D0FA
:10045C0002F58062934211D002F5784293420DD09E
:10046C0002F57052934209D0A2F59432934205D012
:10047C001A6842F001021A60002070479A6802F074
:10048C000702062A07D01A6842F001021A600020FF
:10049C007047012070470020704700BF00000140EA
:1004AC00704770477047704770B504460368DE6844
:1004BC001D6915F0020F10D016F0020F0DD06FF061
:1004CC0002021A610123037703689B6913F0030F7F
:1004DC005ED0FFF7E6FF0023237715F0040F12D050
:1004EC0016F0040F0FD023686FF004021A61022378
:1004FC00237723689B6913F4407F4FD02046FFF786
:10050C00D0FF0023237715F0080F12D016F0080F38
:10051C000FD023686FF008021A6104232377236835
:10052C00DB6913F0030F40D02046FFF7BAFF00231E
:10053C00237715F0100F12D016F0100F0FD0236880
:10054C006FF010021A61082323772368DB6913F418
:10055C00407F31D02046FFF7A4FF0023237715F00E
:10056C00010F02D016F0010F2DD115F0800F02D023
:10057C0016F0800F2FD115F0400F02D016F0400F5F
:10058C0031D115F0200F02D016F0200F33D170BDF1
:10059C00FFF786FF2046FFF785FF9CE72046FFF715
:1005AC007FFF2046FFF77EFFABE72046FFF778FF83
:1005BC002046FFF777FFBAE72046FFF771FF20468A
:1005CC00FFF770FFC9E723686FF001021A6120463C
:1005DC0000F02AFFC9E723686FF080021A612046F9
:1005EC0000F07DF9C7E723686FF040021A612046DE
:1005FC00FFF759FFC5E723686FF020021A61204608
:10060C0000F06CF9C3E700000368344A904212D042
:10061C00B0F1804F0FD0A2F57C4290420BD002F586
:10062C008062904207D002F58062904203D002F5BE
:10063C007842904203D123F070034A681343274A4F
:10064C0090422AD0B0F1804F27D0A2F57C42904244
:10065C0023D002F5806290421FD002F58062904256
:10066C001BD002F57842904217D002F5705290429E
:10067C0013D002F5806290420FD002F58062904256
:10068C000BD0A2F59832904207D002F580629042CE
:10069C0003D002F58062904203D123F44073CA6800
:1006AC00134323F080034A69134303608B68C362CE
:1006BC000B688362094B984203D003F58063984220
:1006CC0001D10B69036301234361036913F0010F2B
:1006DC0003D0036923F0010303617047000001405C
:1006EC0040B310B5044690F83D30F3B1022384F8C2
:1006FC003D30214651F8040BFFF786FF012384F8A7
:10070C00463084F83E3084F83F3084F8403084F82A
:10071C00413084F8423084F8433084F8443084F813
:10072C00453084F83D30002010BD80F83C3000F09E
:10073C0057FEDBE70120704710B4846824F47F4C2B
:10074C0042EA03220A4342EA0C0282605DF8044B3F
:10075C00704790F83C30012B78D010B5044601233B
:10076C0080F83C30022380F83D300268936823F413
:10077C007F4323F0770393600B68602B4CD023D816
:10078C00402B54D011D8202B03D00AD80BB1102BEE
:10079C0005D119462068FFF736FE002028E001201D
:1007AC0026E0302BF5D0012022E0502B0AD1CA686C
:1007BC0049680068FFF700FE50212068FFF723FE10
:1007CC00002015E0012013E0B3F5805F3AD0B3F5BB
:1007DC00005F14D0702B37D1CB684A6889680068E9
:1007EC00FFF7AAFF2268936843F077039360002019
:1007FC00012384F83D30002384F83C3010BDCB68D5
:10080C004A6889680068FFF797FF2268936843F489
:10081C00804393600020EBE7CA6849680068FFF7E3
:10082C00DEFD60212068FFF7EEFD0020E0E7CA68DE
:10083C0049680068FFF7C0FD40212068FFF7E3FD21
:10084C000020D5E70020D3E70120D1E70220704734
:10085C0090F83C20012A3DD010B40346012280F8C8
:10086C003C20022280F83D2002685068946820F0F9
:10087C00700C086840EA0C0050601A6816488242F6
:10088C001AD0B2F1804F17D0A0F57C40824213D021
:10089C0000F5806082420FD000F5806082420BD060
:1008AC0000F57840824207D000F57050824203D0A8
:1008BC00A0F59430824204D124F08004496821438D
:1008CC009160012283F83D20002083F83C005DF804
:1008DC00044B70470220704700000140704770477E
:1008EC00002800F0E08170B582B00446036813F074
:1008FC00010F3BD09F4B9B6803F00C03042B2CD0B7
:10090C009C4B9B6803F00C03082B21D06368B3F558
:10091C00803F4FD0B3F5A02F52D0964B1A6822F4DB
:10092C0080321A601A6822F480221A606368002BE5
:10093C0050D000F0C1FC05468E4B1B6813F4003FF1
:10094C0014D100F0B9FC401B6428F5D90320B1E1A7
:10095C00884B5B6813F4800FD8D0864B1B6813F45C
:10096C00003F03D06368002B00F09F81236813F0D5
:10097C00020F54D07F4B9B6813F00C0F3ED07D4B75
:10098C009B6803F00C03082B33D0E368002B68D072
:10099C00794B01221A6000F08FFC0546754B1B68E1
:1009AC0013F0020F54D100F087FC401B0228F5D93C
:1009BC0003207FE16F4A136843F480331360B5E77B
:1009CC006C4B1A6842F480221A601A6842F4803226
:1009DC001A60ABE700F070FC0546664B1B6813F41D
:1009EC00003FC3D000F068FC401B6428F5D90320FD
:1009FC0060E1604B5B6813F4800FC6D15D4B1B68E4
:100A0C0013F0020F03D0E368012B40F05081594AD8
:100A1C00136823F0F803216943EAC10313602368C8
:100A2C0013F0080F42D063696BB3534B0122C3F828
:100A3C00802E00F041FC05464E4B5B6F13F0020F0D
:100A4C0034D100F039FC401B0228F5D9032031E1E8
:100A5C00484A136823F0F803216943EAC103136081
:100A6C00DDE7454B00221A6000F026FC0546414BA1
:100A7C001B6813F0020FD2D000F01EFC401B0228A2
:100A8C00F5D9032016E13C4B0022C3F8802E00F070
:100A9C0013FC0546374B5B6F13F0020F06D000F0CA
:100AAC000BFC401B0228F5D9032003E1236813F04B
:100ABC00040F77D02F4B1B6C13F0805F33D10023C6
:100ACC0001932C4B1A6C42F080521A641B6C03F08D
:100ADC0080530193019B0125284B1B6813F4807FE5
:100AEC0023D0A368012B34D0052B38D0214B1A6F9F
:100AFC0022F001021A671A6F22F004021A67A36827
:100B0C00002B3DD000F0D8FB06461A4B1B6F13F0A0
:100B1C00020F46D100F0D0FB801B41F28833984283
:100B2C00F3D90320C6E00025D6E7144A136843F432
:100B3C008073136000F0C0FB0646104B1B6813F467
:100B4C00807FCED100F0B8FB801B0228F5D90320A2
:100B5C00B0E0084A136F43F001031367CFE7054B6E
:100B6C001A6F42F004021A671A6F42F001021A67F8
:100B7C00C5E700BF0038024000004742007000404B
:100B8C0000F09AFB0646524B1B6F13F0020F08D075
:100B9C0000F092FB801B41F288339842F3D903207A
:100BAC0088E0EDB9A369002B00F08380484A926875
:100BBC0002F00C02082A51D0022B17D0454B002210
:100BCC001A6600F079FB0446414B1B6813F0007F5A
:100BDC0042D000F071FB001B0228F5D9032069E01C
:100BEC003B4A136C23F080531364DBE7394B002230
:100BFC001A6600F061FB0546354B1B6813F0007F4D
:100C0C0006D000F059FB401B0228F5D9032051E017
:100C1C00E369226A1343626A43EA8213A26A5208A6
:100C2C00013A43EA0243E26A43EA0263284A536008
:100C3C00284B01221A6600F03FFB0446244B1B682C
:100C4C0013F0007F06D100F037FB001B0228F5D90A
:100C5C0003202FE000202DE000202BE0012B2BD0D7
:100C6C001B4B5B6803F48001E269914226D103F0CF
:100C7C003F02216A8A4223D1616A47F6C0721A4048
:100C8C00B2EB811F1ED103F44031A26A5208013A23
:100C9C00B1EB024F18D103F07063E26AB3EB026F51
:100CAC0014D1002006E001207047012002E0012051
:100CBC0000E0002002B070BD0120FBE70120F9E745
:100CCC000120F7E70120F5E70120F3E70120F1E728
:100CDC00003802400000474208B5334B9B6803F0D4
:100CEC000C03042B5BD0082B5BD12F4B5A6802F002
:100CFC003F025B6813F4800F2CD02B4B5868C0F369
:100D0C0088104FEA401CBCEB000C6EEB0E0E4FEA49
:100D1C008E1343EA9C634FEA8C11B1EB0C0163EB2D
:100D2C000E03DB0043EA5173C90011EB000C43F1D5
:100D3C000003590200234FEA4C2041EADC51FFF733
:100D4C002FFA194B5B68C3F3014301335B00B0FB13
:100D5C00F3F008BD144B5868C0F388104FEA401CE0
:100D6C00BCEB000C6EEB0E0E4FEA8E1343EA9C6349
:100D7C004FEA8C11B1EB0C0163EB0E03DB0043EA81
:100D8C005173C90011EB000C43F1000399020023CD
:100D9C004FEA8C2041EA9C51FFF702FAD1E7034855
:100DAC00D7E70348D5E700BF0038024000127A00AD
:100DBC000024F400002800F09B8070B50D4604461A
:100DCC004F4B1B6803F00F038B4208D2CBB24C4A3B
:100DDC001370136803F00F038B4240F08B80236871
:100DEC0013F0020F17D013F0040F04D0454A936888
:100DFC0043F4E0539360236813F0080F04D0414A86
:100E0C00936843F4604393603E4A936823F0F00385
:100E1C00A1680B439360236813F0010F32D0636811
:100E2C00012B21D09A1E012A25D9364A126812F0BC
:100E3C00020F61D033498A6822F0030213438B609E
:100E4C0000F03AFA06462F4B9B6803F00C036268DD
:100E5C00B3EB820F16D000F02FFA801B41F28833CF
:100E6C009842F0D9032042E0264A126812F4003F5F
:100E7C00E0D101203BE0234A126812F0007FD9D167
:100E8C00012034E01E4B1B6803F00F03AB4207D963
:100E9C00EAB21B4B1A701B6803F00F03AB422DD147
:100EAC00236813F0040F06D0164A936823F4E0531A
:100EBC00E1680B439360236813F0080F07D0114AC5
:100ECC00936823F46043216943EAC1039360FFF7FD
:100EDC0003FF0C4B9B68C3F303130B4AD35CD84042
:100EEC000A4B18600A4B186800F09AF9002070BD84
:100EFC00012070470120FAE70120F8E70120F6E70E
:100F0C00003C0240003802400C1800080800002089
:100F1C000400002000230F2B00F2F68070B582B085
:100F2C0066E085684FEA430E032404FA0EF425EAC2
:100F3C000405CC6804FA0EF42C438460446824EA5B
:100F4C0002044A68C2F300129A40224342605DE0F8
:100F5C00DC08083450F8242003F00705AD004FF0EE
:100F6C000F0E0EFA05FE22EA0E0E0A69AA4042EA9C
:100F7C000E0240F824205DE0092200E0002202FA73
:100F8C000EF22A430234614D45F82420604A9468DD
:100F9C006FEA0C0224EA0C054E6816F4801F01D08F
:100FAC004CEA04055A4CA560E46802EA04054E6854
:100FBC0016F4001F01D04CEA0405554CE56064683A
:100FCC0002EA04054E6816F4003F01D04CEA040511
:100FDC004F4C6560246822404D6815F4803F01D069
:100FEC004CEA04024A4C226001330F2B00F28A8037
:100FFC0001229A400C6804EA020C32EA0404F3D190
:10100C004C6804F00304013C012C8AD94A6802F0B4
:10101C000302032A09D0C4685D000322AA4024EA13
:10102C0002048A68AA402243C2604A6802F00302A2
:10103C00022A8DD004684FEA430E032202FA0EF204
:10104C0024EA02044A6802F0030202FA0EF2224376
:10105C0002604A6812F4403FC6D0002201922D4A29
:10106C00546C44F480445464526C02F480420192F7
:10107C00019A9C08A51C254A52F8255003F0030E32
:10108C004FEA8E0E0F2202FA0EF225EA0205224AD0
:10109C0090423FF473AF02F58062904222D002F589
:1010AC008062904220D002F5806290421ED002F500
:1010BC00806290421CD002F5806290421AD002F5F8
:1010CC008062904218D002F58062904216D002F5F0
:1010DC008062904214D002F5806290423FF44CAF93
:1010EC000A224CE701224AE7022248E7032246E79C
:1010FC00042244E7052242E7062240E707223EE7A6
:10110C0008223CE702B070BD704700BF00380140B8
:10111C00003C014000380240000002400AB18161ED
:10112C007047090481617047002807DB00F01F023B
:10113C00400901239340024A42F82030704700BF17
:10114C0000E100E0002808DB0901C9B200F16040B1
:10115C0000F5614080F80013704700F00F000901A2
:10116C00C9B2014B1954704714ED00E000B500F002
:10117C000700C0F1070CBCF1040F28BF4FF0040CA2
:10118C00031D062B0FD9C31E4FF0FF3E0EFA0CF0B9
:10119C0021EA000199400EFA03FE22EA0E0241EA0E
:1011AC0002005DF804FB0023EEE70000074AD36859
:1011BC0023F4E0631B041B0C000200F4E060034307
:1011CC0043F0BF6343F40033D360704700ED00E09D
:1011DC0010B50446054BD868C0F30220FFF7C6FFD4
:1011EC0001462046FFF7AEFF10BD00BF00ED00E04A
:1011FC0008B5FFF799FF08BD0138B0F1807F0BD21D
:10120C004FF0E0235861054AF02182F823100020AA
:10121C00986107221A6170470120704700ED00E0C9
:10122C0010B504460E4B1A784FF47A73B3FBF2F3F5
:10123C000C4A1068B0FBF3F0FFF7DEFF68B90F2C17
:10124C0001D901200AE0002221464FF0FF30FFF7C0
:10125C00BFFF054B1C60002000E0012010BD00BF4B
:10126C0000000020080000200400002008B50B4BF3
:10127C001A6842F400721A601A6842F480621A60AA
:10128C001A6842F480721A600320FFF78FFF0F2058
:10129C00FFF7C6FFFFF774F8002008BD003C0240C2
:1012AC00034A1168034B1B780B441360704700BF53
:1012BC002800002000000020014B1868704700BF78
:1012CC0028000020034AD2F8883043F47003C2F897
:1012DC008830704700ED00E030B589B000240394ED
:1012EC0004940594069407940194144B1A6B42F0E1
:1012FC0080021A631A6B02F080020192019A029426
:10130C001A6B42F040021A631B6B03F0400302930A
:10131C00029B0B4D22464FF4C0412846FFF7FEFEC0
:10132C004FF4C043039301230493059403230693C2
:10133C0003A92846FFF7EEFD09B030BD0038024086
:10134C000018024008B5012914BF0022012201280F
:10135C0007D002280AD14FF480410548FFF7DEFE82
:10136C0004E04FF400510248FFF7D8FE08BD00BF5F
:10137C000018024000B587B0002302930393049336
:10138C0005930093019315484FF0804202600122AF
:10139C004260836048F69F42C26003618361FFF73D
:1013AC009FF990B94FF48053029302A90B48FFF7B1
:1013BC00D0F968B900230093019369460748FFF7F9
:1013CC0047FA40B907B05DF804FBFEF749FFE9E7BF
:1013DC00FEF746FFEEE7FEF743FFF3E72C00002095
:1013EC000368B3F1804F00D0704700B583B0002183
:1013FC000B4B196001910B4B1A6C42F001021A64F1
:10140C001B6C03F001030193019B0A461C20FFF7A0
:10141C00DFFE1C20FFF7ECFE03B05DF804FB00BF01
:10142C0074000020003802400368B3F1804F00D0F4
:10143C007047024A136801331360F9E77400002007
:10144C00064B4FF08052C3F88020BFF34F8FBFF391
:10145C006F8F034908681A60704700BF00E100E015
:10146C007400002038B50546FFF7EAFF0446FFF785
:10147C00E7FF031BAB4201D28442F8D938BD000010
:10148C00DFF834D0FFF71EFF0C480D490D4A00233E
:10149C0002E0D458C4500433C4188C42F9D30A4A1D
:1014AC000A4C002301E013600432A242FBD300F08B
:1014BC0019F8FEF729FF70470000032000000020F8
:1014CC000C0000202C1800080C00002078000020D4
:1014DC00FEE702440346934200D1704703F8011B18
:1014EC00F9E7000070B50D4D0D4C641BA4100026DF
:1014FC00A64209D10B4D0C4C00F076F9641BA410DC
:10150C000026A64205D170BD55F8043B984701361C
:10151C00EEE755F8043B98470136F2E7241800082B
:10152C002418000824180008281800082DE9F04792
:10153C00089D0E4604460F46002B4AD194468C4516
:10154C00B2FA82F260D942B1C2F12003974020FA7C
:10155C0003F30CFA02FC1F4394404FEA1C4E1FFA93
:10156C008CF6B7FBFEF1230C0EFB117743EA074315
:10157C0001FB06F098420AD91CEB030301F1FF377B
:10158C0080F01581984240F21281023963441B1A93
:10159C00A4B2B3FBFEF00EFB103344EA034400FB91
:1015AC0006F6A6420AD91CEB040400F1FF3380F0C6
:1015BC000081A64240F2FD806444023840EA0140BA
:1015CC00A41B00211DB1D4400023C5E90043BDE894
:1015DC00F0878B4205D90DB1C5E900010021084601
:1015EC00F5E7B3FA83F1002946D1B34202D3824224
:1015FC0000F2F580841A66EB030201201746002DD9
:10160C00E5D0C5E90047E2E7002A40F09380A1EB62
:10161C000C034FEA1C471FFA8CFE0121B3FBF7F6B3
:10162C0007FB1630230C43EA00430EFB06F09842EE
:10163C0008D91CEB030306F1FF3802D2984200F2E2
:10164C00D08046461B1AA4B2B3FBF7F007FB10334D
:10165C0044EA03440EFB00FEA64508D91CEB040427
:10166C0000F1FF3302D2A64500F2B6801846A4EB77
:10167C000E0440EA0640A5E7C1F120078B4022FA90
:10168C0007FC4CEA030C06FA01FE20FA07F426FAD2
:10169C0007F344EA0E0400FA01F84FEA1C404FEA43
:1016AC001449B3FBF0FE1FFA8CF600FB1E3349EA1B
:1016BC0003430EFB06F9994502FA01F20BD91CEB18
:1016CC0003030EF1FF3A80F08580994540F2828049
:1016DC00AEF1020E6344A3EB0909A4B2B9FBF0F31B
:1016EC0000FB139944EA094403FB06F6A64208D909
:1016FC001CEB040403F1FF3068D2A64266D9023B0E
:10170C00644443EA0E40A41BA0FB02E6B4427346B9
:10171C00B14652D34FD05DB1B8EB030264EB090470
:10172C0004FA07F722FA01F31F43CC40C5E9007411
:10173C0000214CE7C2F1200120FA01F30CFA02FC63
:10174C0026FA01F1964033434FEA1C471FFA8CFEF0
:10175C00B1FBF7F007FB1016190C41EA064100FB30
:10176C000EF68E4204FA02F408D91CEB010100F1CA
:10177C00FF382DD28E422BD902386144891B9BB283
:10178C00B1FBF7F607FB161143EA014306FB0EF11A
:10179C00994208D91CEB030306F1FF3814D2994285
:1017AC0012D9023E63445B1A46EA004136E73946D9
:1017BC00EDE6184602E7F045ADD2BEEB020366EB50
:1017CC000C060138B146A6E74646ECE7034698E717
:1017DC004046D3E7D6467EE76444023847E70846DE
:1017EC000DE7023E63442DE7F8B500BFF8BC08BC1A
:1017FC009E467047F8B500BFF8BC08BC9E467047C3
:10180C0000000000000000000102030406070809A4
:08181C001CFDFF7F010000002C
:04182400490200086D
:041828002102000891
:0C182C0001000000100000000024F40087
:040000050800148D4E
:00000001FF
